:020000040800F2
:10000000106F0020CD01000815160008011300082C
:10001000111600087F0200081933000800000000D4
:10002000000000000000000000000000652B000838
:10003000B50A0008000000003D180008E5010008AE
:10004000E7010008E7010008E7010008E7010008F0
:10005000E7010008E7010008A50B0008E701000818
:10006000E7010008E7010008E7010008E7010008D0
:10007000E7010008E7010008E7010008E7010008C0
:10008000E7010008E7010008E7010008E7010008B0
:10009000DD310008E7010008E7010008E70100087A
:1000A000E7010008E7010008E7010008E701000890
:1000B000E7010008E7010008E7010008E701000880
:1000C000E7010008E7010008E7010008E701000870
:1000D000E7010008E7010008E7010008E701000860
:1000E000E7010008E701000819310008E7010008EE
:1000F000E7010008E7010008E7010008E701000840
:10010000E7010008A91F0008E7010008E70100084F
:10011000E7010008E7010008E5300008E7010008F2
:10012000E7010008E7010008E70100082D0A0008C0
:1001300000F002F800F03AF80AA090E8000C8244BF
:100140008344AAF10107DA4501D100F02FF8AFF29C
:10015000090EBAE80F0013F0010F18BFFB1A43F0A5
:10016000010318477834000098340000103A24BF87
:1001700078C878C1FAD8520724BF30C830C144BF0C
:1001800004680C607047000000230024002500264E
:10019000103A28BF78C1FBD8520728BF30C148BFEA
:1001A0000B6070471FB51FBD10B510BD00F031F8D2
:1001B0001146FFF7F7FF03F031F900F04FF803B4F1
:1001C000FFF7F2FF03BC00F053F800000948804736
:1001D00009480047FEE7FEE7FEE7FEE7FEE7FEE729
:1001E000FEE7FEE7FEE7FEE704480549054A064B41
:1001F00070470000853000083101000810670020BA
:10020000106F0020106900201069002070477047AF
:100210007047754600F028F8AE460500694653461B
:1002200020F00700854618B020B5FFF7DDFFBDE8D8
:1002300020404FF000064FF000074FF000084FF04D
:10024000000B21F00701AC46ACE8C009ACE8C009DE
:10025000ACE8C009ACE8C0098D4670470446AFF36E
:1002600000802046FFF7ABFF00487047AC660020D7
:1002700001491820ABBEFEE726000200704700BF10
:10028000FEE7000010B5FE49022001F0C9FBFC4862
:100290004068FC494860FA4880688860F848C07B3C
:1002A0001E287FD00BDC122853D003DCA0B103281A
:1002B00073D133E01A2871D01B28F9D1BAE128286C
:1002C0006DD004DC23287FD02528F1D1BDE02A2879
:1002D00067D02F28ECD10EE2EB4800782A2806D10F
:1002E0000020E8490873E9498870087307E0012095
:1002F000E44908730220E54988703A200873E14810
:100300008068DF498968401ADE4988600D228120B3
:1003100003F040F80020DE49087010E2D848C07CA5
:10032000122802DD1221D648C174D548C27CD749B3
:10033000812003F02FF80420D54908700020D1490E
:10034000087308468068CE498968401ACD4988609C
:10035000F5E1CB48007C78B92422CE49812003F016
:1003600019F80420CA4908700020C64908730846D5
:100370008068243888600EE00522C749812003F098
:1003800009F80420C24908700020BE4908730846D5
:100390008068401F8860D2E104E0C6E13AE19DE058
:1003A00012E059E10020B749087308468068B44953
:1003B0008968401AB34988600D22812002F0EAFF63
:1003C0000020B3490870BAE1AF4800782A2829D143
:1003D000B2480068000EB2490871B0480068000CCD
:1003E0004871AE480088000A8871AC480078C8712E
:1003F000AC480068000C4872AA480088000A88725D
:10040000A8480078C8720C22812002F0C3FF0420A3
:100410009F49087000209B490873084680680C3883
:10042000886011E001209749087308468068944964
:100430008968401A934988600020954908700D2208
:100440009049812002F0A6FF79E18F4800782A28A0
:1004500031D192480068401E000E934908708F48C1
:100460000068401E000C48708C480088401E000A3E
:1004700088708A480078401EC8708A480068000E5C
:10048000087188480068000C487186480088000A96
:10049000887184480078C8710822812002F07AFFB0
:1004A00004207B490870002076490873084680685C
:1004B0000838886011E00120724908730846806896
:1004C0006F498968401A6F49886000207049087038
:1004D0000D226C49812002F05DFF30E16848407CCC
:1004E00001066748807C41EA00416548C07C41EADA
:1004F00000206349097D08436C4908606048C17D5C
:10050000807D41EA00206A4908806848006840020E
:100510006649086066480088012841DD0120654978
:10052000087065496148006802F090FB2A2812D0E3
:100530000120544908730846806851498968401A67
:10054000504988600020524908700D224D49812091
:1005500002F020FFF3E05548006800F500705349B1
:10056000086000BF534800780128FBD053494F482A
:10057000006802F06BFB2A2832D001204149087341
:10058000084680683E498968401A3E4988600020D4
:100590003F4908700D223B49812002F0FBFECEE06E
:1005A00045494248006802F051FB2A2812D0012038
:1005B000344908730846806831498968401A3149CE
:1005C00088600020324908700D222E49812002F0F7
:1005D000E1FEB4E000BF3A48006810F4804FFAD062
:1005E000354838490860402208460168812002F0F9
:1005F000D1FE34480068403032490860402032491A
:1006000008802048806840381E49886001202049C1
:10061000087094E004222D49812002F0BBFE0420E2
:100620001B49087000201749087308468068001F9E
:10063000886084E0002013490873084680681049E8
:100640008968401A0F4988600D22812002F0A2FEBD
:1006500000200F49087072E00948407C01060848F4
:10066000807C41EA00410648C07C41EA0020044900
:10067000097D08430D4908600148C17D807D27E060
:100680002842002038400020024000206B4000201B
:10069000344000207D4000206640002004400020BF
:1006A000A940002008400020A14000205040002028
:1006B00054400020E14000204862002048640020AF
:1006C0000004024048400020564000205A400020CC
:1006D00041EA00201B4908801B48006840021A4973
:1006E00008601A481A49086000201A490880022048
:1006F0001949087023E01948007C10F0020F13D14B
:1007000000201749887008731649087308468068E6
:1007100012498968401A134988600D22812002F02D
:1007200039FE00200C49087009E005200C4988704A
:10073000202008731021812000F0BEF900BF00BF07
:1007400010BD0000544000205040002048420020CE
:100750004C40002058400020344000202842002017
:100760006B4000203840002070B52A254FF48034BB
:1007700000E0641E24B1802001F06CFB0028F8D05A
:1007800014B90325284670BD40F2FF5001F062FA0B
:100790002846F8E72DE9F04106462A274748456BE9
:1007A00001E04648456B15F0450FFAD015F0040FEF
:1007B00006D00327042001F04DFA3846BDE8F08149
:1007C00015F0010F05D00127012001F043FA38464A
:1007D000F4E701F039FBB04202D010273846EDE7CC
:1007E00040F2FF5001F036FA002001F0A9FB044668
:1007F0003348044201D13846E0E714F0004F01D0FD
:100800001C20DBE714F0804F01D00920D6E714F05C
:10081000005F01D00A20D1E714F0805F01D00B20E7
:10082000CCE714F0006F01D00C20C7E714F0806F04
:1008300001D00D20C2E714F0807F01D00E20BDE76B
:1008400014F4000F01D00F20B8E714F4800F01D08A
:100850001020B3E714F4001F01D01120AEE714F408
:10086000801F01D01220A9E714F4002F01D013201B
:10087000A4E714F4802F01D014209FE714F4003F64
:1008800001D015209AE714F4803F01D0162095E797
:1008900014F4004F01D0172090E714F4804F01D0DA
:1008A00018208BE714F4005F01D0192086E714F0BC
:1008B000080F01D01A2081E738467FE70080014009
:1008C00008E0FFFD70B52A250F48446B01E00E4893
:1008D000446B14F0450FFAD014F0040F05D0032533
:1008E000042001F0B7F9284670BD14F0010F05D0BF
:1008F0000125012001F0AEF92846F5E740F2FF504E
:1009000001F0A8F92846EFE70080014070B52A25DC
:100910000B48446B01E00A48446B14F0450FFAD0D1
:1009200014F0040F05D00325042001F093F92846A4
:1009300070BD40F2FF5001F08DF92846F8E7000045
:10094000008001402DE9F04106460F464FF02A088D
:100950002248456B01E02148456B15F0450FFAD060
:1009600015F0040F07D04FF00308042001F072F9CE
:100970004046BDE8F08115F0010F06D04FF00108A8
:10098000012001F067F94046F3E701F05DFAB0425B
:1009900003D04FF010084046EBE740F2FF5001F063
:1009A00059F9002001F0CCFA044614F4604F03D149
:1009B000200C38804046DCE714F4005F01D013209F
:1009C000D7E714F4804F01D01020D2E714F4004F81
:1009D00001D00F20CDE74046CBE70000008001406A
:1009E00070B52A264FF480350F48446B02E06D1E27
:1009F0000D48446B14F0450F01D1002DF7D115B10E
:100A000014F0040F05D00326042001F023F930462A
:100A100070BD14F0400F05D02A26402001F01AF9CD
:100A20003046F5E73046F3E7008001401D48006896
:100A300020F001001B49086088141A4940390860F9
:100A400019480068B8B14FF4A060184988630020C5
:100A5000154908601548C06B40F041001349C86350
:100A60000020C86088600846C06840F24C410843D6
:100A70000E49C86014E00D48406B10F4807F0FD021
:100A80000A48406B10F0020F03D00220084908709A
:100A900006E00020064908704FF4A060034988630F
:100AA0007047000044040240C8400020008001401C
:100AB000E14000207047000070B500F00F02104CBC
:100AC000042505FB02442468A3B210F0800F0BD06C
:100AD00001F030045C4048F6BF752C40084D0426F8
:100AE00006FB02552C600AE001F440545C404BF6D2
:100AF0008F752C40024D042606FB02552C6070BDFC
:100B0000005C00402548006848F68F11084040F41A
:100B10000070224908604020214908600020486098
:100B2000802088604FF40440C860C0200861002025
:100B300048611A48001D006848F68F11084017499F
:100B4000091D08608815164988624FF40440C86280
:100B500012480830006848F68F1108400F490831E4
:100B6000086080200D494C3108600C48006843F251
:100B70002001484009490860081D006848F2B0019A
:100B800048400649091D0860081D00684BF28001B5
:100B9000484002490831086070470000005C00408E
:100BA0000060004010B501200249087000F004F810
:100BB00010BD00000140002010B50446200D0005C6
:100BC00001D104B103E0FC2102A002F025FC0E4893
:100BD000046010BD2E2E5C53544D333246313078B4
:100BE0005F5374645065726970685F4472697665BA
:100BF000725C7372635C73746D3332663130785F2C
:100C0000657874692E6300001404014070B50446D1
:100C10000025207910B12079042800D103E06A2151
:100C200035A002F0F9FB6079082805D060790C281E
:100C300002D06079102800D103E06B212EA002F0D1
:100C4000EBFB2068000D000502D1206800B103E035
:100C50006C2129A002F0E0FBA07910B1A079012855
:100C600000D103E06D2124A002F0D6FB2F4DA07926
:100C700090B3284600682168884329460860081D0B
:100C8000006821688843291D086020790544286888
:100C90002168084328602548083000682168884397
:100CA000224908310860081D0068216888431F49EF
:100CB0000C310860607910280FD1081F0068216886
:100CC00008431A4908310860081D00682168084374
:100CD00016490C3108600EE007E0144D60790544B8
:100CE000286821680843286005E0207905442868C1
:100CF00021688843286070BD2E2E5C53544D3332DA
:100D0000463130785F5374645065726970685F442F
:100D100072697665725C7372635C73746D3332668C
:100D20003130785F657874692E63000000040140FB
:100D30002DE9FC4107460D4600262A24002000909C
:100D4000019008205B4908601020486040208860BE
:100D50000020C8604FF480600861084601F000FA86
:100D60001020FFF717FD04462A2C02D02046BDE8CC
:100D7000FC815148008800044E49086037204860D3
:100D8000402088600020C8604FF4806008610846F9
:100D900001F0E6F93720FFF7FDFC04462A2C01D0CC
:100DA0002046E4E74548464908600820486030206E
:100DB00088600220C8600020086101204861084660
:100DC00000F0A0FF00203B4908603320486040202D
:100DD00088600020C8604FF480600861084601F018
:100DE000BFF93320FFF7D6FC04462A2C01D0204659
:100DF000BDE709E04FF4001001F02CF820B101F03C
:100E0000A9F94DF82600761C2E48406B40F22A6165
:100E10000842EFD0082001F01DF828B1082000F0AA
:100E200019FF04242046A2E7022001F013F828B19C
:100E3000022000F00FFF0224204698E7202001F056
:100E400009F828B1202000F005FF062420468EE78F
:100E50004FF4007000F0FEFF30B14FF4007000F06E
:100E6000F9FE0724204682E740F2FF5000F0F2FE30
:100E700000980006009901F47F4140EA01200099A2
:100E800001F47F0140EA1120009940EA1160686096
:100E900001980006019901F47F4140EA012001997F
:100EA00001F47F0140EA1120019940EA11602860B5
:100EB00020465CE780660020BC400020FFFF0F005A
:100EC000946600200080014070B505460C4600265F
:100ED0005DB1012D09D0022D07D0032D05D0042DC1
:100EE00003D0052D01D0062D00D104E040F265218C
:100EF00021A002F091FAECB1012C1BD0022C19D0E8
:100F0000032C17D0042C15D0052C13D0062C11D08F
:100F1000072C0FD0082C0DD0092C0BD00A2C09D08F
:100F20000B2C07D00C2C05D00D2C03D00E2C01D08F
:100F30000F2C00D104E040F266210FA002F06CFA01
:100F4000A007010F0F2000FA01F61848A11050F871
:100F50002100B0431549A21041F822000846A11013
:100F600050F82100A107090F05FA01F108430F49C4
:100F7000A21041F8220070BD2E2E5C53544D333226
:100F8000463130785F5374645065726970685F44AD
:100F900072697665725C7372635C73746D3332660A
:100FA0003130785F6770696F2E6300000800014080
:100FB0002DE9F05F05460C464FF00009CA460026B1
:100FC0000027B046B3465948854211D0584885425B
:100FD0000ED0584885420BD05748854208D0574814
:100FE000854205D05648854202D05648854200D1F8
:100FF00003E0B22154A002F00FFAE078A0B1E0784B
:10100000042811D0E07828280ED0E07848280BD0AA
:10101000E078142808D0E078102805D0E0781C2863
:1010200002D0E078182800D103E0B32146A002F0F6
:10103000F3F9002010B9208800B103E0B42142A0E8
:1010400002F0EAF9E07800F00F09E07810F0100FF4
:1010500010D0A078012805D0A078022802D0A0786E
:10106000032800D103E0BB2137A002F0D5F9A07816
:1010700040EA0909207838B3D5F8008000261FE03F
:10108000012000FA06F7208800EA070ABA4516D1BF
:10109000B7000F2000FA07FB28EA0B0809FA07F04F
:1010A00040EA0808E078282803D10120B0406861B0
:1010B00005E0E078482802D10120B0402861761C84
:1010C000082EDDD3C5F800802088FF282BDDD5F859
:1010D0000480002623E006F10800012101FA00F750
:1010E000208800EA070ABA4518D1B7000F2000FA95
:1010F00007FB28EA0B0809FA07F040EA0808E0783D
:10110000282803D106F1080081406961E078482869
:1011100004D106F10800012181402961761C082EC6
:10112000D9D3C5F80480BDE8F09F00000008014055
:10113000000C014000100140001401400018014063
:10114000001C0140002001402E2E5C53544D3332D0
:10115000463130785F5374645065726970685F44DB
:1011600072697665725C7372635C73746D33326638
:101170003130785F6770696F2E63000070B5044688
:101180000D461348844211D0124884420ED01248B2
:1011900084420BD01148844208D01148844205D0C3
:1011A0001048844202D01048844200D104E040F24A
:1011B00079110EA002F030F9002008B905B104E061
:1011C0004FF4BD7109A002F027F9656170BD000000
:1011D00000080140000C01400010014000140140D3
:1011E00000180140001C0140002001402E2E5C53DD
:1011F000544D3332463130785F53746450657269B0
:1012000070685F4472697665725C7372635C737454
:101210006D3332663130785F6770696F2E6300001E
:1012200030B505460C46280A012804D002280BD008
:1012300003284ED111E022462949802002F0AAF865
:1012400003202849087049E0202C00D92024224698
:101250002549802002F09EF840E0E8B2052831D20E
:10126000DFE800F0030C151E2700042C00DD042429
:1012700022461E49802002F08DF828E0262C00DD51
:10128000262422461A49802002F084F81FE0262CEA
:1012900000DD262422461749802002F07BF816E064
:1012A000182C00DD182422461349802002F072F821
:1012B0000DE0102C00DD102422461049802002F0A1
:1012C00069F804E010218020FFF7F6FB00BF00BFA3
:1012D00004E010218020FFF7EFFB00BF00BF30BD0E
:1012E00048350008104000205A3500087A350008BB
:1012F0007E350008A43500081A400020CA350008D1
:1013000000BFFEE700B50F480078012808D10E485D
:10131000008840F080000D490860002009490870ED
:101320000B48007860B1002009490870094908732A
:1013300088600D22812002F02DF8002006490870F7
:1013400000BD000012400020184000204C5C00400E
:1013500011400020384000203440002010B53148B2
:10136000007801280CD0032859D0042858D10D2228
:101370002D49812002F00EF800202A4908704FE024
:101380002948806800283FD028480088B0F5007FB1
:101390000ED12748006800F50070254908602549EE
:1013A0002348006801F052FC23482449086015E0F6
:1013B0001E480088B0F5806F10D11D48006800F508
:1013C00000701B4908601C491948006801F03EFC88
:1013D000002016490880174818490860402217481D
:1013E0000168812001F0D6FF1048008840300F4985
:1013F00008800D48806840380B4988600F480068B5
:1014000040300E49086009E00020074908730D22AA
:10141000812001F0BFFF00200249087000E000BFFA
:1014200000BF10BD3440002038400020564000204E
:1014300050400020486200204864002048400020BE
:101440000EB5012140F2424000F0FAF9012167484F
:1014500000F038FA01217D2000F076FA002000F03B
:10146000B5FA4FF0E020006920F004004FF0E021D1
:1014700008610846006940F0010008615C48486165
:1014800048F69F405B49088542F2107088850846FF
:10149000808940F001008881012088820846008A06
:1014A00020F001000882362000F0B6F8514800888C
:1014B00040F001004F4908804F48006840F00200AA
:1014C0004D4908604FF4C050ADF8080003208DF876
:1014D0000A0018208DF80B0002A94848FFF768FDA4
:1014E0004FF48020009000208DF8040008208DF833
:1014F000050001208DF806006846FFF787FB4FF4D2
:101500008020FFF759FB0120ADF8080002208DF87C
:101510000A0048208DF80B0002A93948FFF748FD62
:101520000120FFF749FB0120009000208DF8040006
:1015300010208DF8050001208DF806006846FFF7A1
:1015400065FB00210420FFF7BFFC0120FFF734FBFF
:10155000062000F061F80221062000F075F8062050
:1015600000F066F80221362000F06EF800213B20E2
:1015700000F06AF80021312000F066F83B2000F00E
:1015800057F8312000F054F8362000F051F840F2BE
:10159000FF70ADF8080002208DF80A0000208DF8D9
:1015A0000B0002A91548FFF703FD4FF6E770ADF8F1
:1015B000080002A91348FFF7FBFC4CF2FF00ADF84E
:1015C000080002A91048FFF7F3FC4FF6FB70ADF8D6
:1015D000080002A90D48FFF7EBFC4FF6FE70ADF8CE
:1015E000080002A90648FFF7E3FC0EBD10008018B2
:1015F0000024F4000010004014ED00E00008014059
:1016000000180140000C014000100140001401408E
:1016100000BFFEE77047000000F01F02012191406B
:10162000024A430942F823107047000080E200E0BC
:1016300000F01F020121914042094FF0E02303EB2B
:101640008202C2F80011704710B5002807DA0A07B5
:10165000140E054A00F00F031B1FD45403E00A07C1
:10166000130E024A135410BD18ED00E000E400E030
:101670000A49097803290FD10949096881F44051C1
:1016800088B24CF2700120EA010141F08001044A65
:1016900011600021014A11707047000010400020C5
:1016A000005C004010B55C48007810B1022802D1FF
:1016B00002E0FEF7E7FDACE058480168022000F0C8
:1016C000AFF95748008840305549088053480068B2
:1016D000403052490860534880684038514988601A
:1016E0004F480088B0F5005F37D101204E4908709F
:1016F00010224E494E48006801F06CFB4C480068CF
:101700004749098808444A490860484843490860ED
:1017100000204349088000BF434800780128FBD0DF
:101720004449B1F8420000F0DFF904E04149B1F862
:10173000420000F0D9F94048406910F4807FF5D0AC
:101740003848806848B90020364908730D22812046
:1017500001F020FE002030490870324880680028DF
:1017600056D12F480088002852D001202E490870F9
:101770002B480088B0F5007F1AD12C492C4800680E
:1017800001F0C6FA00BF284800780128FBD029499B
:10179000B1F8420000F0A8F904E02649B1F842008F
:1017A00000F0A2F92448406910F4807FF5D01FE0D2
:1017B0001B480488E01704EBD05042121B491C4818
:1017C000006801F007FB00BF174800780128FBD034
:1017D0001849B1F8420000F087F904E01549B1F862
:1017E000420000F081F91448406910F4807FF5D080
:1017F00000200B4908800D4808490860002009496D
:1018000008730D22812001F0C5FD002002490870F7
:1018100000BF00BF10BD0000344000204C4000203D
:101820005840002038400020E1400020484200207D
:1018300050400020E440002000800140704700003C
:1018400070B504460D4640F2575034EA000001D10D
:1018500004B104E040F22B410CA001F0DDFD0DB11C
:10186000012D00D104E040F22C4108A001F0D4FD8C
:101870002DB11348406920431149486104E01048E4
:101880004069A0430E49486170BD00002E2E5C5394
:10189000544D3332463130785F5374645065726909
:1018A00070685F4472697665725C7372635C7374AE
:1018B0006D3332663130785F7263632E63000000EF
:1018C0000010024070B504460D461048044201D194
:1018D00004B104E040F269410DA001F09DFD0DB19D
:1018E000012D00D104E040F26A4109A001F094FD0D
:1018F0002DB11448C06920431249C86104E0114861
:10190000C069A0430F49C86170BD00000036018165
:101910002E2E5C53544D3332463130785F5374640D
:101920005065726970685F4472697665725C737243
:10193000635C73746D3332663130785F7263632E2B
:10194000630000000010024070B504460D461048C8
:10195000044201D104B104E040F24A410DA001F07B
:101960005BFD0DB1012D00D104E040F24B4109A017
:1019700001F052FD2DB1144880692043124988615D
:1019800004E011488069A0430F49886170BD0000E0
:101990000200C0FF2E2E5C53544D33324631307856
:1019A0005F5374645065726970685F4472697665EC
:1019B000725C7372635C73746D3332663130785F5E
:1019C0007263632E630000000010024010B50446ED
:1019D0000CB1012C00D104E040F2DB2102A001F0A7
:1019E0001BFD0E48046010BD2E2E5C53544D333247
:1019F000463130785F5374645065726970685F4433
:101A000072697665725C7372635C73746D3332668F
:101A10003130785F7263632E63000000D800424269
:101A20002DE9F04303460A461B4C03F00F011B4807
:101A30004FF0040808FB0100006880F440501FFAD2
:101A400080FC04EB01108068A0464FF0020909FBFE
:101A5000008504EB01108089C0F30907002605E02A
:101A600035F8048BA2F80080921C761C781CB6EB2B
:101A7000500FF5D34CF270002CEA000040F08000CB
:101A8000DFF818804FF0040909FB0188C8F800004E
:101A9000B8B2BDE8F083000000600040005C004088
:101AA00001462A2000220F4BDA601A469160D26864
:101AB00042F48A62DA6000BF0A4A526B12F0410FA8
:101AC000FAD0084A526B12F0400F03D04022054B67
:101AD0009A6304E001200122024B9A63704700BF21
:101AE000FCE700000080014001462A200022104B44
:101AF000DA600A049A601A46D26840F24D431A43EB
:101B00000B4BDA6000BF0A4A526B12F0410FFAD059
:101B1000074A526B12F0400F03D04022044B9A63E5
:101B200004E001200122024B9A63704700BFFCE7EA
:101B3000008001407CB505462A24002000900190D9
:101B400000F0FEF910F0007F02D00E2420467CBD8C
:101B50003E49098888B26946FFF7EAF804462A2C0C
:101B600001D02046F3E7012D37D1019810F4802FE2
:101B700030D0364800880004354908603720486076
:101B8000402088600020C860A8020861084600F074
:101B9000E7FA3720FEF7FEFD04462A2C01D0204646
:101BA000D5E702202A490860062048604020886066
:101BB0000020C8604FF480600861084600F0D0FA49
:101BC0000620FEF7E7FD04462A2C01D02046BEE79A
:101BD0002046BCE725242046B9E7019810F4803F51
:101BE00031D01A480088000419490860372048603D
:101BF000402088600020C8604FF48060086108467B
:101C000000F0AEFA3720FEF7C5FD04462A2C01D0BD
:101C100020469CE700200E490860062048604020CE
:101C200088600020C8604FF480600861084600F0BA
:101C300097FA0620FEF7AEFD04462A2C01D0204676
:101C400085E7204683E72524204680E7BC40002026
:101C50008066002010B504460648044201D104B154
:101C600004E040F2C32104A001F0D6FB0F488463D6
:101C700010BD000000F83FFF2E2E5C53544D333250
:101C8000463130785F5374645065726970685F44A0
:101C900072697665725C7372635C73746D333266FD
:101CA0003130785F7364696F2E63000000800140FB
:101CB00010B504460CB1012C00D103E0EE2103A0C5
:101CC00001F0AAFB0E48046010BD00002E2E5C53EC
:101CD000544D3332463130785F53746450657269C5
:101CE00070685F4472697665725C7372635C73746A
:101CF0006D3332663130785F7364696F2E63000034
:101D0000A000304270B5044600256068B0F1007F45
:101D100000D204E04FF4DA7134A001F07DFBA0683A
:101D200048B3A068102826D0A068202823D0A06837
:101D3000302820D0A06840281DD0A06850281AD094
:101D4000A068602817D0A068702814D0A0688028E8
:101D500011D0A06890280ED0A068A0280BD0A06851
:101D6000B02808D0A068C02805D0A068D02802D02C
:101D7000A068E02800D104E040F2B5111BA001F0FA
:101D80004BFBE06810B1E068022800D104E04FF49A
:101D9000DB7116A001F040FB2069042801D0206906
:101DA00000B904E040F2B71110A001F035FB606902
:101DB000012801D0606900B904E04FF4DC710BA088
:101DC00001F02AFB1649206848626068886208466C
:101DD000C56A25F0F705D4E90201084321690843E3
:101DE0006169084305430E48C56270BD2E2E5C53E1
:101DF000544D3332463130785F53746450657269A4
:101E000070685F4472697665725C7372635C737448
:101E10006D3332663130785F7364696F2E63000012
:101E20000080014000200649086048608860C86062
:101E300048628862C862034888630020C8637047AC
:101E400000800140FF07C00001480069C0B2704730
:101E50000080014070B504460025012C3DD0022CC5
:101E60003BD0042C39D0082C37D0102C35D0202C66
:101E700033D0402C31D0802C2FD0B4F5807F2CD0A3
:101E8000B4F5007F29D0B4F5806F26D0B4F5006F8B
:101E900023D0B4F5805F20D0B4F5005F1DD0B4F539
:101EA000804F1AD0B4F5004F17D0B4F5803F14D04E
:101EB000B4F5003F11D0B4F5802F0ED0B4F5002F4B
:101EC0000BD0B4F5801F08D0B4F5001F05D0B4F5D1
:101ED000800F02D0B4F5000F00D104E040F29F2142
:101EE00005A001F099FA1148406B204201D001256C
:101EF00000E00025284670BD2E2E5C53544D333231
:101F0000463130785F5374645065726970685F441D
:101F100072697665725C7372635C73746D3332667A
:101F20003130785F7364696F2E6300000080014078
:101F30000248006800F00300704700000080014084
:101F400038B50446002000902CB1042C03D0082C96
:101F500001D00C2C00D104E040F2A11104A001F04A
:101F60005BFA1048204400900098006838BD0000DB
:101F70002E2E5C53544D3332463130785F537464A7
:101F80005065726970685F4472697665725C7372DD
:101F9000635C73746D3332663130785F7364696F7C
:101FA0002E630000148001403048406B10F0410F58
:101FB00018D02E48406B10F0400F06D000202C495E
:101FC000087040202949886305E0022028490870EC
:101FD0000120264988632548C06B20F04100234931
:101FE000C86341E02148406B10F4817F3CD01F481A
:101FF000C06B20F481701D49C8631E48006808B397
:1020000000201C4908601948406B10F4807F13D0F1
:102010004FF4A060154988630020C86088600846B6
:10202000C06840F24C4108431049C8600846C06B84
:1020300040F04100C86317E002200D4908700B49C9
:10204000886311E00948406B10F4807F07D00020BE
:10205000074908704FF4A0600449886304E0022037
:1020600003490870014988637047000000800140FF
:10207000E1400020C840002070B5044600252068DB
:1020800018B12068B0F5005F00D103E0BA2123A0A9
:1020900001F0C2F9606818B16068B0F5806F00D1D6
:1020A00003E0BB211DA001F0B7F9A06818B1A0683A
:1020B000B0F5007F00D103E0BC2118A001F0ACF91D
:1020C000E06838B1E068B0F5006F03D0E068B0F5C3
:1020D000805F00D103E0BD2110A001F09DF92069CF
:1020E00018B12069B0F5804F00D103E0BE210BA0EC
:1020F00001F092F91648456847F6FF608543207D58
:10210000A168084361680843E168084321680843FF
:102110002169084305430E48456070BD2E2E5C536F
:10212000544D3332463130785F5374645065726970
:1021300070685F4472697665725C7372635C737415
:102140006D3332663130785F7364696F2E630000DF
:102150000080014001480068704700008080014015
:1021600070B5044600256068402800D204E040F2C3
:102170005F111FA001F050F9A06828B1A0684028A5
:1021800002D0A068C02800D104E04FF4B07118A0BC
:1021900001F042F9E06838B1E068B0F5807F03D023
:1021A000E068B0F5007F00D104E040F2611110A0BA
:1021B00001F032F92069B0F5806F01D0206900B9D3
:1021C00004E04FF4B1710AA001F026F91549206826
:1021D00088600846C5686FF30A05D4E90101084321
:1021E000E16808432169084305430E48C56070BD96
:1021F0002E2E5C53544D3332463130785F53746425
:102200005065726970685F4472697665725C73725A
:10221000635C73746D3332663130785F7364696FF9
:102220002E6300000080014010B504460CB1032C61
:1022300000D103E0FE2107A001F0EEF8124800688B
:1022400020F0030010490860084600682043086039
:1022500010BD00002E2E5C53544D33324631307881
:102260005F5374645065726970685F447269766523
:10227000725C7372635C73746D3332663130785F95
:102280007364696F2E6300000080014070B50446DE
:102290002A2523480068032802D12725284670BD37
:1022A0001F48006838B11E480068012803D01C4848
:1022B0000068022831D1B4F5805F02D12725284675
:1022C000EDE7B4F5006F16D10120FFF733FC0546AA
:1022D0002A2D22D10120134908750020086048608A
:1022E0004FF4007088608000C860002008610846D4
:1022F000FFF7C2FE11E00020FFF71CFC05462A2D67
:102300000BD10120074908750020086048608860EB
:10231000C86008610846FFF7AFFE2846BFE7000027
:10232000B84000206866002010B501462A2000222F
:10233000914B1B7881F84030904B1B88A1F84230BC
:102340008F4B1B681A0E93090B70C2F383034B70FB
:1023500002F003038B708A4B1B68C3F30742CA70F9
:10236000874B1B88C3F307220A71854B1A784A7181
:102370005B681A0E1301CB80814B5B68C3F3074285
:10238000CB8843EA1213CB8002F00F030B727C4B15
:102390009B88C3F30722D3094B72C2F380138B725D
:1023A000C2F34013CB72C2F300130B7300234B73C1
:1023B00093071B0DCB81724B1A79CB8943EA8203B9
:1023C000CB816F4B9B681A0ECB8943EA9213CB816A
:1023D000C2F3C2030B7402F007034B74684B9B6893
:1023E000C3F3074253098B74C2F38203CB74930780
:1023F0005B0F0B75624B1B89C3F307220B7D43EA0E
:10240000D2130B75C2F380134B7593065B0E8B755D
:102410005B4B1A7A8B7D43EAD2138B7502F07F03F4
:10242000CB75574BDB681A0ED3090B76C2F34113F9
:102430004B76C2F382038B7693071B0FCB76504B00
:10244000DB68C3F30742CB7E43EA9213CB76C2F339
:1024500040130B7700234B7702F001038B77484B37
:102460009B89C3F30722D309CB77C2F3801381F88A
:102470002030C2F3401381F82130C2F3001381F8F9
:102480002230C2F3810381F8233002F0030381F884
:1024900024303B4B1A7B530881F82530012381F807
:1024A0002630384B1B681A0E81F82820354B1B68E4
:1024B000C3F3074214024C85324B1B88C3F3072237
:1024C0004B8D13434B852F4B1A781406CC625B68F7
:1024D0001A0ECB6A43EA0244CC622A4B5B68C3F310
:1024E0000742CB6A43EA0224CC62264B9B88C3F3A3
:1024F0000722CB6A1343CB62224B1A7930235A54FA
:10250000204B9B681A0E31235A541E4B9B68C3F311
:10251000074214064C631B4B1B89C3F307224B6B0A
:1025200043EA02444C63174B1A7A4B6B43EA02248A
:102530004C63144BDB681A0E4B6B13434B63114B0C
:10254000DB68C3F3074238235B5C43EA1214382389
:102550005C5413071C0D4C870A4B9B89C3F307225D
:102560004B8F13434B87074B1A7B54083C235C5417
:1025700001243D235C5410BDB8400020BC40002025
:10258000486600205866002010B52A24FFF74AFC50
:1025900000F0BEF800F0ECF804462A2C01D02046EA
:1025A00010BD00F015F804462A2C01D02046F7E7AC
:1025B0000120064908750020086048608860C860EE
:1025C00008610846FFF758FD2046E9E768660020E5
:1025D00038B52A2401200090FFF7AAFC10B9252461
:1025E000204638BD45480068042829D000204449C9
:1025F000086002204860C02088600020C8604FF456
:10260000806008610846FFF7ABFDFEF75BF9044602
:102610002A2C01D02046E4E70020FFF791FC39493D
:1026200008600420FFF78CFC364948600820FFF75B
:1026300087FC344988600C20FFF782FC3149C86070
:102640002E48006858B12D480068012807D02B4853
:102650000068062803D029480068022817D1002006
:102660002749086003204860402088600020C86037
:102670004FF4806008610846FFF772FD6946032049
:10268000FEF760F904462A2C01D02046A9E71B4832
:10269000006804282FD0BDF800001B490860BDF871
:1026A000000000041649086009204860C0208860C6
:1026B0000020C8604FF4806008610846FFF750FDB5
:1026C000FEF700F904462A2C01D0204689E70020B5
:1026D000FFF736FC0D4908600420FFF731FC0B4979
:1026E00048600820FFF72CFC084988600C20FFF7A1
:1026F00027FC0649C8602A24204672E7B84000201B
:102700008066002058660020BC40002048660020FB
:1027100008B54FF4F850ADF8000003208DF8020022
:1027200018208DF8030069460E48FEF741FC04208E
:10273000ADF8000003208DF8020018208DF803008A
:1027400069460948FEF734FC0120ADF8000002207C
:102750008DF8020048208DF8030069460348FEF713
:1027600027FC08BD00100140001401400018014082
:102770002DE9F0472A24002600254FF000084FF0ED
:102780000009B220614908750020086048604FF4D4
:10279000007088600020C86008610846FFF76CFC84
:1027A0000320FFF741FD0120FFF782FA002701E037
:1027B000781C87B242F210708742F9DB002054493E
:1027C000086048608860C8604FF48060086108460F
:1027D000FFF7C6FCFDF7C8FF04462A2C02D02046AE
:1027E000BDE8F0874FF4D57049490860082048607B
:1027F000402088600020C8604FF48060086108466F
:10280000FFF7AEFCFEF7ECF804462A2C05D10120B8
:10281000404908604FF0804912E000203C490860C0
:1028200037204860402088600020C8604FF48060F6
:1028300008610846FFF794FC3720FDF7ABFF04461C
:10284000002033490860372048604020886000201D
:10285000C8604FF4806008610846FFF781FC3720AC
:10286000FDF798FF04462A2C4ED138E00020284975
:10287000086037204860402088600020C8604FF41E
:10288000806008610846FFF76BFC3720FDF782FF88
:1028900004462A2C01D02046A2E71F4849EA00003E
:1028A0001B49086029204860402088600020C860DB
:1028B0004FF4806008610846FFF752FCFEF726F8E7
:1028C00004462A2C01D020468AE70020FFF738FB77
:1028D0000646012080EAD67080F001086D1CB8F130
:1028E000000F03D14FF6FF708542BFD34FF6FF7044
:1028F000854202D31B24204672E706F08040060082
:1029000002D0022003490860204669E7686600207B
:1029100080660020B84000200000108070B504469A
:102920002A250A480460072008494860402088603A
:102930000020C8604FF4806008610846FFF710FC73
:102940000720FDF727FF0546284670BD806600205A
:1029500001462A2019B1012901D0022902D1024AD7
:10296000116000E026207047C04000200FB501A98B
:102970000020FFF755F89DF80400734909680870B6
:102980009DF80500704909684870BDF806006E4959
:1029900009684880BDF808006B4909688880BDF85F
:1029A0000A0069490968C8806748006808306649B4
:1029B00008609DF8040010F0600004D0202875D055
:1029C000402874D1BBE09DF8040010F0030004D04F
:1029D00001286ED0022868D180E09DF805000A2801
:1029E00062D2DFE800F0051161126113202A2B2C5E
:1029F00003208DF8000000208DF8010002226946B6
:102A0000802000F0C7FC4FE04EE04DE0BDF806002E
:102A10004E49088001204E4908700022114680204E
:102A200000F0B8FC40E0BDF80A10BDF80600FEF763
:102A3000F7FB03204749087036E035E034E0042016
:102A4000454908704548006820F4805043490860B3
:102A50000846006840F400600860081D006820F423
:102A60000060091D08603D483C38006848F68F71D9
:102A7000084048F28001084340F0010037493C39E2
:102A80000860081D006848F68F71084048F2800110
:102A9000084340F0020031493839086000221146ED
:102AA000802000F077FC00BF00BF35E036E047E053
:102AB000FFE79DF8050003280BD003DC38B101289F
:102AC0000AD105E00A2805D00B2805D103E003E070
:102AD00002E001E000E000BF00BF1DE09DF805003E
:102AE00030B1012806D0032803D00C2812D110E001
:102AF00010E000BFBDF80810C8B22021FDF7DCFFD0
:102B000000221146802000F045FC01201449087085
:102B100000E000BF00BF00BF00BF12E09DF805004D
:102B2000FE280AD100200390012203A9802000F092
:102B300031FC03200749087000BF00BF01E000E03E
:102B400000BF00BF0FBD000014400020184000204F
:102B500012400020104000200C400020405C00404B
:102B600011400020704710B500F002F810BD0000C1
:102B70000CB50020019000903248006840F480308D
:102B80003049086000BF2F48006800F40030009012
:102B90000198401C0190009818B90198B0F5A06FF9
:102BA000F1D12848006810F4003F02D001200090C5
:102BB00001E0002000900098012842D122480068DE
:102BC00040F01000204908600846006820F003002B
:102BD00008600846006840F0020008601948406834
:102BE000184948600846406848600846406840F414
:102BF000806048600846406820F47C1048600846C1
:102C0000406840F4E81048600846006840F0807072
:102C1000086000BF0B48006810F0007FFAD0094838
:102C2000406820F00300074948600846406840F0CB
:102C30000200486000BF0348406800F00C0008280C
:102C4000F9D10CBD001002400020024010B5024630
:102C50002A2000232C4CE36023469A60DB6840F274
:102C600051442343284CE36000BF274B5B6B13F0B8
:102C7000450FFAD0244B5B6B13F0400F03D0402379
:102C8000214CA3630EE0204B5B6B13F0040F04D0C8
:102C900004231D4CA363032010BD012001231A4C03
:102CA000A363F9E70023184CE3626FF0704363629B
:102CB0006315A3622346DB6A43F09B03E362A3141C
:102CC000124C2360114B40331B6823F001030F4C5F
:102CD0004034236023461B6823F0100323600A4B13
:102CE00080330A4C48342360231D19608023241F3D
:102CF0002360231F1B6842F683242343034C403484
:102D0000236000BFC8E700000080014004040240C7
:102D100010B502462A2000232C4CE3606315A36201
:102D200023469A60DB6843F48B63E36000BF274B64
:102D30005B6B13F0450FFAD0244B5B6B13F0400F25
:102D400003D04023214CA3630EE0204B5B6B13F0B8
:102D5000040F04D004231D4CA363032010BD0120E5
:102D600001231A4CA363F9E7184BDB6B43F481731F
:102D7000164CE3630023E3622346DB6A43F09903C6
:102D8000E362A314124C2360114B40331B6823F001
:102D900001030F4C4034236023461B6823F00203D9
:102DA00023600A4B80330A4C48342360231D19608A
:102DB0008023241F2360231F1B6842F69124234392
:102DC000034C4034236000BFC8E70000008001408E
:102DD0000404024030B503462A200024594DEC601B
:102DE000594CB4F842402404AC602C46E46840F2EC
:102DF00077452C43534DEC6000BF524C646B14F08C
:102E0000450FFAD04F4C646B14F0400F03D04024B0
:102E10004C4DAC630EE04B4C646B14F0040F04D0CB
:102E20000424484DAC63032030BD01200124454DEE
:102E3000AC63F9E70024434DEC602C46A260E468E3
:102E400040F257452C433F4DEC6000BF3D4C646B56
:102E500014F0450FFAD03B4C646B14F0400F03D0D4
:102E60004024384DAC630EE0364C646B14F0040F14
:102E700004D00424334DAC630320D5E701200124A2
:102E8000304DAC63D0E700242E4DEC605402AC62B0
:102E90002C46A360E46840F259452C43294DEC6070
:102EA00000BF284C646B14F0450FFAD0254C646BBE
:102EB00014F0400F03D04024224DAC630EE0214CAF
:102EC000646B14F0040F04D004241E4DAC63032083
:102ED000AAE7012001241B4DAC63A5E7194CE46B64
:102EE00044F48174174DEC630024EC622C46E46AD0
:102EF00044F09904EC620124144D2C602403144D19
:102F00002C60134C4034246824F00104104D4035EB
:102F10002C602C46246824F002042C60094C803478
:102F20000B4D48352C602C1D2160D4012D1F2C60C9
:102F30002C1F246842F691252C43054D40352C600A
:102F400000BF71E700800140E4400020C84000203D
:102F50000404024008B5002000F0E4F805204049D0
:102F600008704048008820F001003E4908803E4833
:102F7000006820F001003C4908604FF4F850ADF8BB
:102F8000000002208DF8020000208DF80300694641
:102F90003648FEF70DF80420ADF8000069463448C5
:102FA000FEF706F80120ADF8000069463148FDF74C
:102FB000FFFF3148006840F480502F490860084600
:102FC000006820F4006008600846006840F00100D6
:102FD00008600846006820F00100086000BF26482D
:102FE000001D006810F4806FF9D000202249091DEF
:102FF0000860081F006840F00800091F08600846C4
:10300000006840F0040008601C484FF0E02148616F
:103010000020886100BF4FF0E020006910F4803F7D
:10302000F9D01748006840F004001549086030BF27
:103030000846006820F0040008600F48006820F08F
:1030400008000D4908600846006820F00400086088
:10305000081D006820F40060091D086008BD00001C
:103060000C4000200010004000040140001001400E
:103070000014014000180140405C0040E86E03006D
:1030800010ED00E010B51348006840F00100114950
:10309000086008464068104908400E4948600846E4
:1030A00000680E4908400B4908600846006820F493
:1030B000802008600846406820F4FE0048604FF415
:1030C0001F008860FFF74FFD4FF000600449086063
:1030D00010BD0000001002400000FFF8FFFFF6FEE8
:1030E00008ED00E00848008A20F001000649088247
:1030F00006480078042805D00120054908701420EE
:103100000449086070470000001000400C40002097
:103110000040002000EF00E010B54FF48020FDF7E4
:103120004BFD10BD38B50446012C11D14003ADF85C
:10313000000002208DF8020014208DF8030069467B
:103140000B48FDF735FF61030948FEF717F80DE05E
:103150004FF40050ADF8000002208DF8020004206A
:103160008DF8030069460248FDF722FF38BD0000D4
:103170000010014010B51848006820F00200164900
:1031800008605A204FF0E02148610020886100BFAC
:103190004FF0E020006910F4803FF9D00E4800683D
:1031A00020F001000C4908600846006840F4044023
:1031B0000860002008491031086001211420FEF742
:1031C00043FA00212A20FEF73FFA1420FEF730FAD6
:1031D0002A20FEF72DFA10BD405C004010B54C4887
:1031E000006810F4806F04D0002049490860FDF7A2
:1031F00089FC4748006810F4004F71D06BE04448E8
:10320000006800F00F0001280ED1414840380068E6
:1032100084B224F0800048F68F7108403C49403960
:103220000860FEF79BF856E03948006800F00F0090
:1032300002280ED136483C38006884B224F400409D
:1032400048F68F71084032493C390860FEF72AFA87
:1032500041E02F48006810F00F0F3CD12C48006867
:1032600010F0100F0ED12A484438006884B224F0C0
:10327000800048F68F710840254944390860FEF700
:1032800041F828E022484438006810F4006F0ED05E
:103290001F484438006884B224F4004048F68F7117
:1032A00008401B4944390860FFF760FB13E01848E9
:1032B0004438006810F4004F0DD0154844380068B9
:1032C00084B224F4004048F68F7108401049443914
:1032D0000860FEF7CDF90E48006810F4004F8ED15B
:1032E0000B48006810F4006F02D10A48007808B15A
:1032F000FFF730FE0648006810F4805F07D00448EE
:10330000006820F480500249086000F007F810BD02
:10331000445C00400040002000BFFEE708B5FFF716
:10332000B1FE0120ADF8000002208DF80200482017
:103330008DF8030069461248FDF73AFE114800680F
:1033400040F001000F4908600120FDF735FC00F056
:10335000BBF80D49087008460078292801D1FEF70E
:1033600061FD0020094988840846008840F001007A
:1033700008800020064908700120FFF7D3FE08BD31
:1033800000180140000401400240002000100040ED
:10339000004000202DE9F04303461D4C03F00F00D0
:1033A000DFF870C04FF0040808FB00CCDCF800C068
:1033B0008CF0300C1FFA8CF704EB001CDCF800C01A
:1033C000A0464FF0020909FB0C85002605E0B1F884
:1033D00000C045F804CB891C761C02F1010C0CEBF3
:1033E000DC78B6EB680FF2D304EB001CCCF80420B9
:1033F00047F2C00C27EA0C0C4CF4004CDFF81480A8
:103400004FF0040909FB0088C8F800C0BDE8F0834C
:1034100000600040005C004000BFFEE70020FFF7B6
:1034200081FEFEF70DF82248006820F002002049D6
:1034300008600846006840F0010008601D484068C8
:1034400040F002001B4948601B48006810F0010F63
:1034500003D100F039F819490870FFF78BFE0120FD
:10346000FFF760FE22E016480078F0B115484FF0F3
:10347000E02148610020886100BF4FF0E020006932
:1034800010F4803FF9D00C48006810F0010F04D10F
:1034900000F01AF80949087004E02920074908706B
:1034A000FEF7C0FC00200649087030BFDBE70000D3
:1034B00000700040002004E0081801400240002095
:1034C000014000200024F40010B5FFF75DF82A2821
:1034D00001D0292010BD1948FEF726FF2A2801D067
:1034E0002920F7E71549B1F842100804FFF716FA4A
:1034F0002A2801D02920EDE74FF40060FEF7C6FE30
:103500002A2801D02920E5E70020FFF721FA0B48FF
:10351000007D801C012181408CB20848C089401C7C
:103520006043074908604FF4007006490860098845
:1035300088B2FEF7B5FA2A20CCE70000E44000206C
:10354000044000200840002012010002000000405A
:103550008304205700020102030109022000010137
:1035600000E0E1090400000208065004070581029A
:10357000400000070502024000000403090426037E
:10358000530054004D006900630072006F00650035
:103590006C0065006300740072006F006E006900CB
:1035A000630073002603530054004D0033003200C3
:1035B00020004D0061007300730020005300740070
:1035C0006F00720061006700650010035300540033
:1035D00020004D006100730073000000FC350008FE
:1035E00000400020E40000006C010008E036000804
:1035F000E44000202C2E0000880100080000290073
:1036000000000000000000000000000000000000BA
:103610002841002000001803530054004D003300DF
:103620003200660031003000330076006500000093
:10363000000000005553425300000000000000004D
:10364000000000000000000000000000000000007A
:103650000000000000000300000000060000000061
:1036600000000000000000700000000000000A00E0
:1036700000000000000000000000800202200000A6
:103680000053544D2020202020534420466C617369
:1036900068204469736B202020312E302000000008
:1036A0000000000000000000080000000002000010
:1036B0000000000000000000000000000200000008
:1036C00000000000000000002A00000000000000D0
:1036D00000000000000000000000000001000000E9
:0400000508000131BD
:00000001FF
