:020000042000DA
:10000000F0380020CD010020CD1A0020CF1A0020AA
:10001000D31A0020D71A0020DB1A002000000000AD
:10002000000000000000000000000000DF1A0020B7
:10003000E11A002000000000E31A0020E501002082
:10004000E7010020E7010020E7010020E701002090
:10005000E7010020E7010020E7010020E701002080
:10006000E7010020E7010020E7010020E701002070
:10007000E7010020E7010020E7010020E701002060
:10008000E7010020E7010020E7010020D31B00204A
:10009000E71A0020E7010020E7010020E701002027
:1000A000E7010020E7010020E7010020E701002030
:1000B000E7010020E7010020E7010020E701002020
:1000C000E7010020E7010020E7010020E701002010
:1000D000E7010020E7010020E7010020E701002000
:1000E000E7010020E7010020D51B0020E7010020E8
:1000F000E7010020E7010020E7010020E7010020E0
:10010000E7010020E51A0020E7010020E7010020B8
:10011000E7010020E7010020E7010020E7010020BF
:10012000E7010020E7010020E7010020E7010020AF
:1001300000F002F800F03AF80AA090E8000C8244BF
:100140008344AAF10107DA4501D100F02FF8AFF29C
:10015000090EBAE80F0013F0010F18BFFB1A43F0A5
:1001600001031847301F0000501F0000103A24BF41
:1001700078C878C1FAD8520724BF30C830C144BF0C
:1001800004680C607047000000230024002500264E
:10019000103A28BF78C1FBD8520728BF30C148BFEA
:1001A0000B6070471FB51FBD10B510BD01F0F3FE09
:1001B0001146FFF7F7FF01F071FC01F011FF03B4E6
:1001C000FFF7F2FF03BC01F015FF0000094880476C
:1001D00009480047FEE7FEE7FEE7FEE7FEE7FEE729
:1001E000FEE7FEE7FEE7FEE704480549054A064B41
:1001F00070470000E902002031010020F0300020AB
:10020000F0380020F0320020F03200200CB5002041
:10021000019000906B48006840F4803069490860A4
:1002200000BF6848006800F4003000900198401C4E
:100230000190009818B90198B0F5A06FF1D161480C
:10024000006810F4003F02D00120009001E000207F
:1002500000900098012842D15B48006840F01000EF
:10026000594908600846006820F003000860084605
:10027000006840F0010008605248406851494860F9
:100280000846406848600846406840F4806048601E
:100290000846406820F47C1048600846406840F4F6
:1002A000881048600846006840F08070086000BF11
:1002B0004448006810F0007FFAD04248406820F0BF
:1002C0000300404948600846406840F0020048602A
:1002D00000BF3C48406800F00C000828F9D10CBD74
:1002E00010B5FFF793FF10BD10B53648006840F019
:1002F00001003449086008464068344908403149E3
:10030000486008460068324908402E49086008469F
:10031000006820F4802008600846406820F4FE0051
:1003200048604FF41F008860FFF7DAFF4FF000507D
:100330002849086010BD10B5002100200022214B83
:100340005B6803F00C0121B1042906D0082928D1EB
:1003500007E0214B214C236027E01F4B1F4C2360FB
:1003600023E0184B5B6803F47010164B5B6803F4D2
:100370008032022303EB904022B9194B4343174CC0
:1003800023600DE00F4B5B6813F4003F04D0144B67
:100390004343124C236003E00F4B43430F4C236055
:1003A00003E00D4B0D4C236000BF00BF054B5B68A5
:1003B000C3F303130B4CE15C084B1B68CB40074CA9
:1003C000236010BD00100240002002400000FFF832
:1003D000FFFFF6FE08ED00E000127A00003000207A
:1003E00000093D00043000200020A7490860091DD5
:1003F0000860091D0860091D0860A448A24914315D
:100400000860704770B504460025207910B1207946
:10041000042800D103E06A219DA001F046FB607929
:10042000082805D060790C2802D06079102800D106
:1004300003E06B2196A001F038FB2068000D000559
:1004400002D1206800B103E06C2191A001F02DFBE6
:10045000A07910B1A079012800D103E06D218CA012
:1004600001F023FB884DA07990B3284600682168ED
:10047000884329460860081D006821688843291DB3
:1004800008602079054428682168084328607E4870
:1004900008300068216888437B4908310860081DDE
:1004A00000682168884378490C3108606079102819
:1004B0000FD1081F0068216808437349083108609C
:1004C000081D0068216808436F490C3108600EE080
:1004D00007E06D4D6079054428682168084328606D
:1004E00005E020790544286821688843286070BDAC
:1004F0000021016001710C2141710021817170475F
:1005000010B50446200D000501D104B103E0AE2171
:100510005FA001F0CAFA5C481030006820435A49D5
:100520001031086010BD70B504460025012C31D093
:10053000022C2FD0042C2DD0082C2BD0102C29D0FD
:10054000202C27D0402C25D0802C23D0B4F5807FC0
:1005500020D0B4F5007F1DD0B4F5806F1AD0B4F56B
:10056000006F17D0B4F5805F14D0B4F5005F11D0E0
:10057000B4F5804F0ED0B4F5004F0BD0B4F5803FEA
:1005800008D0B4F5003F05D0B4F5802F02D0B4F503
:10059000002F00D103E0BE213DA001F086FA3A48C9
:1005A00014300068204201D0012500E000252846D3
:1005B00070BD10B50446200D000501D104B103E063
:1005C000D42133A001F071FA2F481430046010BD1B
:1005D00070B5044600250026012C31D0022C2FD006
:1005E000042C2DD0082C2BD0102C29D0202C27D037
:1005F000402C25D0802C23D0B4F5807F20D0B4F5BA
:10060000007F1DD0B4F5806F1AD0B4F5006F17D0FD
:10061000B4F5805F14D0B4F5005F11D0B4F5804F0D
:100620000ED0B4F5004F0BD0B4F5803F08D0B4F530
:10063000003F05D0B4F5802F02D0B4F5002F00D1D3
:1006400003E0E52112A001F030FA0F48006800EA4B
:1006500004060D4814300068204202D00EB1012576
:1006600000E00025284670BD10B50446200D0005A9
:1006700001D104B103E0FC2105A001F016FA024803
:100680001430046010BD000000040140FFFF0F00A3
:100690002E2E5C53544D3332463130785F537464A0
:1006A0005065726970685F4472697665725C7372D6
:1006B000635C73746D3332663130785F657874696A
:1006C0002E63000010B50446FC48844211D0FC485B
:1006D00084420ED0FB4884420BD0FB48844208D0B1
:1006E000FA48844205D0FA48844202D0F94884424C
:1006F00000D103E06F21F8A001F0D7F9EF48844260
:1007000008D10121042001F05CF80021042001F04F
:1007100058F846E0EA48844208D10121082001F057
:1007200050F80021082001F04CF83AE0E5488442F6
:1007300008D10121102001F044F80021102001F01F
:1007400040F82EE0E048844208D10121202001F049
:1007500038F80021202001F034F822E0DB48844200
:1007600008D10121402001F02CF80021402001F0A7
:1007700028F816E0D648844208D10121802001F0F3
:1007800020F80021802001F01CF80AE0D1488442C2
:1007900007D10121801501F014F80021A01501F006
:1007A00010F810BD10B50121084601F00AF800212B
:1007B000012001F006F810BD2DE9F05F05460C465A
:1007C0004FF00009CA4600260027B046B346BB4892
:1007D000854211D0BA4885420ED0BA4885420BD026
:1007E000B948854208D0B948854205D0B848854205
:1007F00002D0B848854200D103E0B221B6A001F092
:1008000054F9E078A0B1E078042811D0E0782828E5
:100810000ED0E07848280BD0E078142808D0E07893
:10082000102805D0E0781C2802D0E078182800D1E4
:1008300003E0B321A8A001F038F9002010B9208806
:1008400000B103E0B421A4A001F02FF9E07800F09A
:100850000F09E07810F0100F10D0A078012805D013
:10086000A078022802D0A078032800D103E0BB21A1
:1008700099A001F01AF9A07840EA0909207838B364
:10088000D5F8008000261FE0012000FA06F7208836
:1008900000EA070ABA4516D1B7000F2000FA07FB95
:1008A00028EA0B0809FA07F040EA0808E078282847
:1008B00003D10120B040686105E0E078482802D10A
:1008C0000120B0402861761C082EDDD3C5F80080D9
:1008D0002088FF282BDDD5F80480002623E006F1D0
:1008E0000800012101FA00F7208800EA070ABA454A
:1008F00018D1B7000F2000FA07FB28EA0B0809FA05
:1009000007F040EA0808E078282803D106F108003B
:1009100081406961E078482804D106F1080001218E
:1009200081402961761C082ED9D3C5F80480BDE822
:10093000F09F4FF6FF710180022181700421C17088
:10094000704770B505460C4600265C48854211D0BC
:100950005B4885420ED05B4885420BD05A488542A1
:1009600008D05A48854205D05948854202D0594896
:10097000854200D104E04FF48F7157A001F095F843
:10098000012C25D0022C23D0042C21D0082C1FD0E0
:10099000102C1DD0202C1BD0402C19D0802C17D00F
:1009A000B4F5807F14D0B4F5007F11D0B4F5806F1A
:1009B0000ED0B4F5006F0BD0B4F5805F08D0B4F55D
:1009C000005F05D0B4F5804F02D0B4F5004F00D1E0
:1009D00004E040F21F1140A001F067F8A86820422F
:1009E00001D0012600E00026304670BD10B5044657
:1009F0003248844211D0324884420ED03148844279
:100A00000BD03148844208D03048844205D0304869
:100A1000844202D02F48844200D104E04FF49A71FE
:100A20002DA001F042F8A06880B210BD70B5054657
:100A30000C4600262148854211D0214885420ED01F
:100A4000204885420BD02048854208D01F48854267
:100A500005D01F48854202D01E48854200D104E0DF
:100A60004FF4A2711CA001F020F8012C25D0022C1B
:100A700023D0042C21D0082C1FD0102C1DD0202CCA
:100A80001BD0402C19D0802C17D0B4F5807F14D007
:100A9000B4F5007F11D0B4F5806F0ED0B4F5006FBF
:100AA0000BD0B4F5805F08D0B4F5005F05D0B4F585
:100AB000804F02D0B4F5004F28D12DE0000801404E
:100AC000000C0140001001400014014000180140DA
:100AD000001C0140002001402E2E5C53544D333247
:100AE000463130785F5374645065726970685F4452
:100AF00072697665725C7372635C73746D333266AF
:100B00003130785F6770696F2E63000040F24511E5
:100B1000AFF23C0000F0C9FFE868204201D0012696
:100B200000E00026304670BD10B50446FE48844201
:100B300011D0FE4884420ED0FD4884420BD0FD48BF
:100B4000844208D0FC48844205D0FC48844202D04C
:100B5000FB48844200D105E04FF4AD71AFF288004C
:100B600000F0A3FFE06880B210BD70B504460D46EA
:100B7000ED48844211D0ED4884420ED0EC488442C6
:100B80000BD0EC48844208D0EB48844205D0EB48B7
:100B9000844202D0EA48844200D105E040F2691163
:100BA000AFF2CC0000F081FF002008B905B105E0EC
:100BB0004FF4B571AFF2E00000F077FF256170BD32
:100BC00070B504460D46D848844211D0D7488442B7
:100BD0000ED0D74884420BD0D648844208D0D6489D
:100BE000844205D0D548844202D0D548844200D101
:100BF00005E040F27911AFF2201000F056FF00201E
:100C000008B905B105E04FF4BD71AFF2341000F042
:100C10004CFF656170BD70B505460C461646C2486E
:100C2000854211D0C14885420ED0C14885420BD0C3
:100C3000C048854208D0C048854205D0BF4885429B
:100C400002D0BF48854200D105E040F28D11AFF2DD
:100C5000781000F02AFF012C25D0022C23D0042C80
:100C600021D0082C1FD0102C1DD0202C1BD0402CA4
:100C700019D0802C17D0B4F5807F14D0B4F5007F44
:100C800011D0B4F5806F0ED0B4F5006F0BD0B4F571
:100C9000805F08D0B4F5005F05D0B4F5804F02D076
:100CA000B4F5004F00D105E04FF4C771AFF2D81092
:100CB00000F0FBFE0EB1012E00D105E040F28F11D5
:100CC000AFF2EC1000F0F1FE0EB12C6100E06C61AF
:100CD00070BD70B504460D469348844211D09348C8
:100CE00084420ED0924884420BD09248844208D06D
:100CF0009148844205D09148844202D09048844271
:100D000000D105E04FF4D271AFF2342000F0CDFEF7
:100D1000E56070BD70B504460D464FF480368248DC
:100D2000844211D0814884420ED0814884420BD045
:100D30008048844208D08048844205D07F4884425D
:100D400002D07F48844200D105E040F2B511AFF2F5
:100D5000782000F0AAFE002008B905B105E04FF4A4
:100D6000DB71AFF28C2000F0A0FE2E43A661A561DE
:100D7000A661A669A66970BD70B505460C46002639
:100D80003DB1012D05D0022D03D0032D01D0042D3E
:100D900000D105E04FF4E971AFF2C42000F085FE08
:100DA000ECB1012C1BD0022C19D0032C17D0042C31
:100DB00015D0052C13D0062C11D0072C0FD0082CE1
:100DC0000DD0092C0BD00A2C09D00B2C07D00C2CE1
:100DD00005D00D2C03D00E2C01D00F2C00D105E036
:100DE00040F2D311AFF2103000F05FFE55480668B4
:100DF0004FF68070064046EA0516264351480660C5
:100E000070BD10B504460CB1012C00D105E04FF4C3
:100E1000F371AFF23C3000F048FE4B48C46110BDA6
:100E20002DE9F04704460E460027B8460025A9469E
:100E3000012C77D0022C75D0042C73D0082C71D0E3
:100E4000A4F5A01010386DD020386BD0A4F5B010E8
:100E5000403867D0803865D03C48844262D03C48F6
:100E600084425FD03B4884425CD03B48844259D0A6
:100E70003A48844256D0B4F5805F53D0B4F5EA1FA7
:100E800050D0B4F5EB1F4DD0B4F5004F4AD03448E4
:100E9000844247D0A4F50010801E7CD0801E7AD0FA
:100EA000001F78D0083876D0B4F1201F73D03038C6
:100EB00071D02C4884426ED02B4884426BD02B4892
:100EC000844268D02A48844265D02A48844262D04D
:100ED000B4F5011F5FD0284884425CD0401C844296
:100EE00059D0801C844256D0001D844253D02248E1
:100EF0000F3084424FD020481F3084424BD01E48D0
:100F00003F30844247D01C487F30844243D01A4847
:100F1000FF3084423FD0194884423CD01848844274
:100F200039D02FE037E0000000080140000C0140FC
:100F3000001001400014014000180140001C014055
:100F40000020014000000140000020420001180084
:100F5000000218000003180000081A00000C1A0014
:100F600001002000000130000002300000043000C9
:100F700000112000002020000100008000020080FD
:100F8000000400806348844205D06348844202D054
:100F90006248844200D105E040F22A21AFF2C84005
:100FA00000F083FD0EB1012E00D105E040F22B21AF
:100FB000AFF2DC4000F079FD04F00040B0F1004FEA
:100FC00002D15748C56901E055484568C4F3034953
:100FD000A7B204F44010B0F5401F08D125F07065A9
:100FE0004F48406820F070604D49486013E004F4B9
:100FF0008010B0F5801F07D1032000FA09F825EA18
:10100000080545F0706506E0600D000107FA00F084
:10101000854345F0706526B1600D010107FA01F0C6
:10102000054304F00040B0F1004F02D13C48C561D7
:1010300001E03B484560BDE8F08770B505460C46C9
:1010400000265DB1012D09D0022D07D0032D05D05A
:10105000042D03D0052D01D0062D00D105E040F26E
:101060006521AFF28C5000F020FDECB1012C1BD0BB
:10107000022C19D0032C17D0042C15D0052C13D01A
:10108000062C11D0072C0FD0082C0DD0092C0BD01A
:101090000A2C09D00B2C07D00C2C05D00D2C03D01A
:1010A0000E2C01D00F2C00D105E040F26621AFF2EA
:1010B000D85000F0FAFCA007010F0F2000FA01F64B
:1010C00017480830A11050F82100B04314490831E6
:1010D000A21041F822000846A11050F82100A107F3
:1010E000090F05FA01F108430D490831A21041F832
:1010F000220070BD10B504460CB1012C00D105E0F2
:101100004FF41E71AFF2306000F0CFFC0548046070
:1011100010BD00000008008000100080002000804A
:1011200000000140DC002042FE48006840F0010061
:10113000FC49086008464068FB490840F949486096
:1011400008460068F9490840F64908600846006802
:1011500020F4802008600846406820F4FE004860C3
:101160004FF41F008860704710B504462CB1B4F5E9
:10117000803F02D0B4F5802F00D104E040F211117D
:10118000EBA000F092FCE748006820F48030E549CD
:1011900008600846006820F480200860B4F5803FAD
:1011A00003D0B4F5802F0ED106E0DE48006840F48D
:1011B0008030DC49086007E0DA48006840F4A0208D
:1011C000D849086000E000BF00BF10BD2DE9F04124
:1011D0000446002500260027212C13D0312C11D0E5
:1011E000392C0FD0412C0DD0612C0BD07A2C09D08A
:1011F0007B2C07D07C2C05D07D2C03D07E2C01D0FD
:101200007F2C00D104E040F23451C9A000F04DFC25
:101210006511012D02D1C348066806E0022D02D1F6
:10122000C048066A01E0BF48466A04F01F05012075
:10123000A840304201D0012700E000273846BDE831
:10124000F08138B5002000900024002500BF312037
:10125000FFF7BCFF05460098401C00900098B0F5D1
:10126000A06F01D0002DF2D03120FFF7AFFF08B101
:10127000012400E00024204638BD70B50446002556
:101280001F2C00DC04E04FF4A971A9A000F00DFCB4
:10129000A448056825F0F80545EAC405056070BD59
:1012A00010B504460CB1012C00D104E040F26511E8
:1012B0009FA000F0FAFBAB48046010BD70B5054676
:1012C0000C4600262DB1B5F5803F02D0B5F5403F64
:1012D00000D104E040F27F1195A000F0E6FB4CB392
:1012E000B4F5802F26D0B4F5002F23D0B4F5402FCD
:1012F00020D0B4F5801F1DD0B4F5A01F1AD0B4F5CE
:10130000C01F17D0B4F5E01F14D0B4F5001F11D0E2
:10131000B4F5101F0ED0B4F5201F0BD0B4F5301F5C
:1013200008D0B4F5401F05D0B4F5501F02D0B4F575
:10133000601F00D104E04FF4C0717DA000F0B5FB48
:101340007848466826F47C1645EA0400064375484A
:10135000466070BD10B504460CB1012C00D104E00C
:101360004FF4CA7172A000F0A0FB7E48046610BD65
:1013700070B5044600251CB1012C01D0022C00D10F
:1013800004E04FF40E716AA000F08FFB65484568D9
:1013900025F003052543456070BD6248406800F0B4
:1013A0000C00704770B5044600257CB1802C0DD030
:1013B000902C0BD0A02C09D0B02C07D0C02C05D07D
:1013C000D02C03D0E02C01D0F02C00D104E04FF45D
:1013D000197157A000F069FB5248456825F0F005E7
:1013E0002543456070BD70B5044600255CB1B4F579
:1013F000806F08D0B4F5A06F05D0B4F5C06F02D0EF
:10140000B4F5E06F00D104E040F27E2148A000F086
:101410004CFB4448456825F4E0652543456070BDB4
:1014200070B5044600255CB1B4F5806F08D0B4F502
:10143000A06F05D0B4F5C06F02D0B4F5E06F00D155
:1014400004E04FF426713AA000F02FFB35484568C0
:1014500025F4605545EAC405456070BD70B5044685
:101460000D4614F0E00F01D104B104E040F2BF21B9
:101470002FA000F01AFB0DB1012D00D104E04FF4B4
:1014800030712BA000F011FB2DB12648407A20438B
:101490002449487204E02348407AA0432149487215
:1014A00070BD10B504460CB1012C00D104E040F22F
:1014B000DB211FA000F0F9FA2B48046010BD70B5C5
:1014C0000446002544B1B4F5804F05D0B4F5004F73
:1014D00002D0B4F5404F00D104E040F2023114A034
:1014E00000F0E3FA0F48456825F440452543456080
:1014F00070BD10B504461CB1012C01D0042C00D1E4
:1015000004E04FF450710AA000F0CFFA0020174910
:101510000870044981F82000012C29D0042C2FD117
:101520002AE00000001002400000FFF8FFFFF6FE76
:101530002E2E5C53544D3332463130785F537464F1
:101540005065726970685F4472697665725C737227
:10155000635C73746D3332663130785F7263632E0F
:101560006300000000004242D800424220100240C6
:101570000120F449087004E00520F249087000E0F9
:1015800000BF00BF10BD10B504460CB1012C00D146
:1015900005E040F26131AFF2680000F086FAEA48F7
:1015A000046010BD10B50446B4F5807F05D0B4F5D5
:1015B000007F02D0B4F5407F00D105E040F27231E7
:1015C000AFF2940000F071FADE482038006A204340
:1015D000DC492039086210BD10B504460CB1012C5D
:1015E00000D105E04FF46071AFF2BC0000F05DFA8D
:1015F000D5484438046010BD30B5002100220024D5
:101600000023D04D203D6D6805F00C0121B1042967
:1016100005D0082926D105E0CC4D056025E0CB4D4D
:10162000056022E0C74D203D6D6805F47012C54D80
:10163000203D6D6805F48034022505EB92421CB90B
:10164000C34D554305600CE0BE4D203D6D6815F45B
:10165000003F03D0BE4D5543056002E0BB4D5543EE
:10166000056002E0B94D056000BF00BFB54D203DEB
:101670006D6805F0F0010909B64D6B5C0568DD4049
:101680004560B04D203D6D6805F4E061090AB14D3B
:101690006B5C4568DD408560AA4D203D6D6805F4B2
:1016A0006051C90AAB4D6B5C4568DD40C560A54D16
:1016B000203D6D6805F44041890BA74D6B5CC56802
:1016C000B5FBF3F5056130BD70B504460D4640F23B
:1016D000575034EA000001D104B105E040F22B413B
:1016E000AFF2B41000F0E1F90DB1012D00D105E029
:1016F00040F22C41AFF2C81000F0D7F93DB191484B
:101700002038406920438F492039486106E08D48E0
:1017100020384069A0438B492039486170BD70B5BD
:1017200004460D468D48044201D104B105E040F263
:101730004A41AFF2042000F0B8F90DB1012D00D1FB
:1017400005E040F24B41AFF2182000F0AEF93DB198
:101750007C482038806920437A492039886106E036
:10176000784820388069A04376492039886170BD67
:1017700070B504460D467A48044201D104B105E033
:1017800040F26941AFF2582000F08FF90DB1012D00
:1017900000D105E040F26A41AFF26C2000F085F91B
:1017A0003DB168482038C069204366492039C86186
:1017B00006E064482038C069A04362492039C86106
:1017C00070BD70B504460D466448044201D104B1B1
:1017D00005E040F2A441AFF2A82000F066F90DB197
:1017E000012D00D105E040F2A541AFF2BC2000F090
:1017F0005CF93DB153482038C06820435149203935
:10180000C86006E04F482038C068A0434D492039E1
:10181000C86070BD70B504460D465148044201D100
:1018200004B105E040F2C341AFF2FC2000F03DF905
:101830000DB1012D00D105E040F2C441AFF21030EE
:1018400000F033F93DB13F482038006920433D495D
:101850002039086106E03B4820380069A043394937
:101860002039086170BD10B504460CB1012C00D1BF
:1018700005E04FF49B61AFF2483000F016F93248B2
:101880004038046010BD10B504460CB1012C00D1E5
:1018900005E040F2E541AFF2683000F006F931486A
:1018A000C46410BD10B504463CB1052C05D0042C11
:1018B00003D0062C01D0072C00D105E040F20551E1
:1018C000AFF2943000F0F1F81E482038C47110BD1A
:1018D0001C482038406A40F080701A49203948621C
:1018E000704770B504460025012C09D0022C07D0A2
:1018F000042C05D0082C03D0102C01D0802C00D152
:1019000005E040F27E51AFF2D83000F0CEF80D483D
:1019100020388068204201D0012500E000252846BB
:1019200070BD10B5044614F0600F01D104B105E09C
:1019300040F2AB51AFF2084000F0B7F80148203850
:10194000847210BD201002408004424200127A00CE
:1019500000093D0014300020243000200200C0FFA8
:10196000003601810000424238B50446012C11D1F5
:101970004003ADF8000002208DF8020014208DF81D
:10198000030069464A48FEF717FF61034848FFF71E
:1019900017F90DE04FF40050ADF8000002208DF86B
:1019A000020004208DF8030069464148FEF704FF59
:1019B00038BD3EB501214120FFF786FE01213D489B
:1019C000FFF7D6FE01210D20FFF7A9FE0020FFF74B
:1019D00068FD4FF48070ADF8080002208DF80A0011
:1019E00010208DF80B0002A93348FEF7E5FE4FF4F6
:1019F00080713148FFF7B9F84FF4C050ADF80800D6
:101A000003208DF80A0018208DF80B0002A92B483E
:101A1000FEF7D2FE4FF48020FEF726FE4FF4802022
:101A2000009000208DF8040008208DF805000120AA
:101A30008DF806006846FEF7E5FC2148006820F0B6
:101A400002001F4908600846006820F00100086095
:101A50000846006840F4044008600020184910312E
:101A6000086014200121002807DA0A07140E154A1D
:101A700000F00F031B1FD45403E00A07130E124A91
:101A8000135400BF14200121814042094FF0E0238C
:101A900003EB8202C2F8001100BF3EBDFFF789FFD1
:101AA0000120FFF761FF00BFFEE700BFFEE7000077
:101AB0000010014010008018000C01400008014097
:101AC000405C004018ED00E000E400E0704700BF1B
:101AD000FEE700BFFEE700BFFEE700BFFEE770477E
:101AE00070477047704710B53B48006810F4806F2E
:101AF00007D03948006820F480603749086000F05A
:101B0000DDF83548006810F4004F61D05BE03248E2
:101B1000006810F00F0F4ED12F48443800682F494D
:101B200008800846008800F030002D4908802B48C6
:101B3000008800F44050294908802748006810F0C8
:101B4000100F0ED124484438006884B224F080007D
:101B500048F68F71084020494439086000F0D8F9F0
:101B600031E01D484438006810F4006F0ED01A4868
:101B70004438006884B224F4004048F68F7108406D
:101B800015494439086000F05AF91CE012484438FD
:101B9000006810F4004F16D00F484438006884B233
:101BA00024F4004048F68F7108400B49443908601E
:101BB00000F0C9F907E00848006800F00F000128AC
:101BC00001D0054800680448006810F4004F9ED119
:101BD00010BD704770470000445C00402830002072
:101BE0002A300020F0B503460A4603F00F01D6481C
:101BF000006800EB01108068D44F4FF0020C0CFB22
:101C00000074D148006800EB01108089C0F3090618
:101C1000002504E034F8047B1780921C6D1C701CB6
:101C2000B5EB500FF6D3CA48042707FB0100006844
:101C300080F43040C64F4FF0040C0CFB0177386045
:101C4000B0B2F0BDF0B5034603F00F00BE4E3668EB
:101C500006EB00163668BD4F4FF0020C0CFB067504
:101C6000002403E00E8840C5891C641C561C06EB4A
:101C7000D677B4EB670FF5D3B34E366806EB001694
:101C80007260B34E042707FB0066366886F0B00624
:101C9000AF4F4FF0040C0CFB00773E60F0BD704777
:101CA000704700B5002211468020FFF7CBFF00BD32
:101CB00000B5A8490020FFF795FF00BDA4480068C3
:101CC00048F68F71084048F280010843A049086037
:101CD000081D006848F68F71084048F280010843EB
:101CE00040F002009A49091D0860081D006848F686
:101CF0008F71084048F28001084340F00200944987
:101D0000083108609248006848F68F11084040F496
:101D100000708F49086040208C49086000204860AE
:101D2000802088604FF40440C860C0200861002013
:101D3000894908608948006848F68F1100EA010067
:101D4000864908604FF480708049C8614FF40440B0
:101D5000C8628348006848F68F1100EA0100804994
:101D600008604FF080007F490860794800684BF2B6
:101D7000A00180EA0100764908607848006848F2CE
:101D8000A00180EA010075490860754800684BF2BF
:101D9000800180EA010072490860704730B504464E
:101DA0000D46200A012804D0022808D003283CD17F
:101DB0000BE02A466C498020FFF744FF3DE02A46AD
:101DC0006A498020FFF73EFF37E0E0B2052822D2C3
:101DD000DFE800F003090F151B000422644980208E
:101DE000FFF730FF1FE0262262498020FFF72AFF1D
:101DF00019E0262260498020FFF724FF13E0182213
:101E00005E498020FFF71EFF0DE010225C49802014
:101E1000FFF718FF07E04E48006849F2900148407C
:101E20004B49086000BF00BF07E04948006849F21D
:101E3000900148404649086000BF00BF30BD0CB566
:101E400069460020FFF7CEFE9DF8000010F060000C
:101E500004D0142857D0282857D155E09DF8000009
:101E600010F0030004D0012826D0022849D138E020
:101E70009DF801000A281DD2DFE800F005061C07C6
:101E80001C0812191A1B15E014E013E0BDF802003B
:101E90003C49088001203C490870FFF702FF09E037
:101EA000BDF80610BDF80200FFF778FF02E001E080
:101EB00000E000BF00BF24E09DF8010003280BD024
:101EC00003DC38B101280AD105E00A2805D00B2827
:101ED00005D103E003E002E001E000E000BF00BF45
:101EE0000FE09DF8010030B1012805D0032804D08F
:101EF0000C2804D102E002E001E000E000BF00BFD6
:101F000000BF00BF02E001E000E000BF00BF0CBD69
:101F10001E48007818B901201C49087005E01B48CC
:101F20000078012801D01948007817480078012866
:101F300008D11448008840F080000A490860002059
:101F40001149087070477047303000200060004031
:101F5000005C0040503000200E600040045C0040F7
:101F6000085C00404C5C004002200020142000204F
:101F700034200020382000205E200020383000204F
:101F80008420002036300020343000202C30002007
:101F9000704770477047754600F028F8AE46050058
:101FA0006946534620F00700854618B020B5FEF775
:101FB0001BF9BDE820404FF000064FF000074FF03E
:101FC00000084FF0000B21F00701AC46ACE8C00957
:101FD000ACE8C009ACE8C009ACE8C0098D46704760
:101FE0000446AFF300802046FEF7E9F8004870474A
:101FF0009030002001491820ABBEFEE72600020009
:1020000070471201000200000040830420570002C4
:102010000102030109022000010100C0320904008D
:10202000000208065004070581024000000705026F
:1020300002400000040309042603530054004D002D
:102040006900630072006F0065006C00650063004A
:10205000740072006F006E00690063007300260355
:10206000530054004D003300320020004D00610049
:10207000730073002000530074006F007200610051
:102080006700650010035300540020004D006100FC
:1020900073007300B42000200030002050000000C6
:1020A0006C0100200421002050300020A008000016
:1020B00088010020006CDC0200000000000000002D
:1020C00001020304060708090000000001020304DE
:1020D00001020304060708090204060800000000C4
:1020E00000000000006000400000000018035300E2
:1020F00054004D00330032006600310030003300E0
:042100007600650000
:0400000520000131A5
:00000001FF
